:10FC58005B426F6F745D2830290D0A005B4C6F633F
:10FC68006B5D2831290D0A005B45726173655D285B
:10FC780032290D0A005B53746172745D28332900C0
:10FC88000D0A5B476574200020427974655D28344D
:10FC9800290D0A000D0A5B54696D65204F75745D66
:10FCA8002835290D0A000D0A5B4F766572666C6F60
:0EFCB800775D2836290D0A00FFFFFFFFFFFFD2
:08FD530002140000021600007A
:10FCEA00759850758E40E4F589758AC0758C637570
:10FCFA008BCC758DFFC28DC28FC28CD28EC2AB22C5
:03FD48002430FF65
:08FD4B008F993099FDC2992245
:10FD0A008F828E83E49360130FEF70010E14F582D5
:0CFD1A00E493F5993099FDC29980E52230
:04FBE9008E098F0AE8
:10FBED00E4FBEBC39405748094805023AE09AF0AF7
:10FBFD007C007D0A12FB17740B2BF8A605AE09AF1E
:10FC0D000A7C007D0A12FB178E098F0A0B80D3E543
:10FC1D000F600312FD48E50F450E6005E50E12FD60
:10FC2D0048E50F450E450D6008E50D2430FF12FD2A
:10FC3D004BE50F450E450D450C6008E50C2430FFD6
:0BFC4D0012FD4BE50B2430FF02FD4BC5
:0EFD3A00E4F5C7F5C5F5C675C3FF75C4FF2215
:10FD260075C78175C5038FC48EC375C65A75C6A5BA
:04FD36000002FD3A90
:0EFCC600900001E493FD12FCD4A3E493FD0F23
:10FCD40075C78175C5028FC48EC38DC275C65A752A
:06FCE400C6A50002FD3A76
:0AF9A1008E098F0A8B0B8A0C890D6A
:10F9AB00E4F510F511E42511FFE51034FE8F82F517
:10F9BB0083E493FF74002511F58274003510F583F1
:10F9CB00EFF00511E51170020510B400D8E510B485
:10F9DB0002D37F007EFE12FD26E4250AF513E5090E
:10F9EB003402F512E4F510F511C3E511950FE5108E
:10F9FB00950E5030AB0BAA0CA90D85118285108387
:10FA0B0012FAEAFFE5112513FDE5103512FC74001F
:10FA1B002DF58274003CF583EFF00511E51170C9EB
:10FA2B00051080C5E4F510F511E42511FFE5103440
:10FA3B00FEFE74002511F58274003510F583E0FD90
:10FA4B0012FCD40511E51170020510C3E5109402E8
:02FA5B0040D792
:01FA5D002286
:10FB7200D3E5179400E5169401503A900001E0FD98
:10FB82007F067EFE12FCD4A3E0FD0F12FCD47A00A5
:10FB92007B03C3EB9517EA9516504BAF03AE027485
:10FBA200002BF58274003AF583E0FD12FCD40BBB06
:10FBB20000010A80DDE4FAFBC3EB9515EA951450C7
:10FBC20025C3E5179515CFE5169514CF2BCF3AFE31
:10FBD20074002BF58274003AF583E0FD12FCD40B1D
:06FBE200BB00010A80D205
:01FBE80022FA
:10F8000075F51890FE00E49330E71A7D7F7F007E47
:10F81000FE12FCD47F0612FCC67F0112FCC67DBF1F
:10F820007F0012FCD490FE01E493FE740193FFE488
:10F83000A907AA06F5188A19891A90FE039354C0DD
:10F84000701E90FE0693FE740193FFE4A907AA06BA
:10F85000F5188A19891A208007AA19A91A12FB6CAF
:10F8600012FCEA7EFC7F5812FD0A3098FDC298E532
:10F8700099642160097EFC7F6412FD0A80FE7EFC93
:10F880007F7012FD0AE4FFFE12FD267D0212FCD4F9
:10F8900090FE01E493FD0F12FCCC7BFF7AFC79C053
:10F8A000750E00750F050F7EFE12F9A17D7F7F0397
:10F8B0007EFE12FCD47D007C02C3EC94F85010AFA5
:10F8C00005AE0412FD26E42DFD74023CFC80EAE442
:10F8D000F514F515F516F5177EFC7F7D12FD0AD29D
:10F8E0008C7508FA20986C308DFAC28D1508E508E1
:10F8F00070F2C28CE517451660347EFC7F8812FDDD
:10F900000AAF17AE1612FBE97EFC7F9012FD0A12B9
:10F91000FB72E516FD7F047EFE12FCD4AD170F12BC
:10F92000FCD47DBF7F0312FCD490FE06800A7EFCCF
:10F930007F9C12FD0A90FE01E493FE740193FFE4A4
:10F94000A907AA06F5188A19891AAA19A91A12FB71
:10F950006C8091C28DC2980515E515AE1470020534
:10F9600014142400F58274003EF583E599F0051720
:10F97000E51770020516E4B5150DE514B40108127B
:10F98000FB72E4F514F515D3E5179400E51694F829
:10F9900040097EFC7FAE12FD0A80FE75083202F837
:01F9A000E482
:0300000002FA5EA3
:0CFA5E00787FE4F6D8FD75811A02FAA545
:10FAEA00BB010CE58229F582E5833AF583E02250D1
:10FAFA0006E92582F8E622BBFE06E92582F8E2221B
:0DFB0A00E58229F582E5833AF583E4932234
:10FB1700BC000BBE0029EF8DF084FFADF022E4CCD2
:10FB2700F875F008EF2FFFEE33FEEC33FCEE9DEC9B
:10FB3700984005FCEE9DFE0FD5F0E9E4CEFD22EDE1
:10FB4700F8F5F0EE8420D21CFEADF075F008EF2F2B
:10FB5700FFED33FD4007985006D5F0F222C398FD1C
:05FB67000FD5F0EA22B9
:06FB6C008A838982E47324
:10FA6A0002F800E493A3F8E493A34003F68001F2BA
:10FA7A0008DFF48029E493A3F85407240CC8C3339D
:10FA8A00C4540F4420C8834004F456800146F6DF6C
:10FA9A00E4800B010204081020408090FD53E47EAC
:10FAAA00019360BCA3FF543F30E509541FFEE49361
:10FABA00A360010ECF54C025E060A840B8E493A328
:10FACA00FAE493A3F8E493A3C8C582C8CAC583CA53
:10FADA00F0A3C8C582C8CAC583CADFE9DEE780BE0B
:01FD5B0000A7
:00000001FF
